{
  "abi": [
    {
      "inputs": [],
      "stateMutability": "nonpayable",
      "type": "constructor"
    },
    {
      "anonymous": false,
      "inputs": [
        {
          "indexed": true,
          "internalType": "address",
          "name": "owner",
          "type": "address"
        },
        {
          "indexed": true,
          "internalType": "address",
          "name": "spender",
          "type": "address"
        },
        {
          "indexed": false,
          "internalType": "uint256",
          "name": "value",
          "type": "uint256"
        }
      ],
      "name": "Approval",
      "type": "event"
    },
    {
      "anonymous": false,
      "inputs": [
        {
          "indexed": true,
          "internalType": "address",
          "name": "delegator",
          "type": "address"
        },
        {
          "indexed": true,
          "internalType": "address",
          "name": "fromDelegate",
          "type": "address"
        },
        {
          "indexed": true,
          "internalType": "address",
          "name": "toDelegate",
          "type": "address"
        }
      ],
      "name": "DelegateChanged",
      "type": "event"
    },
    {
      "anonymous": false,
      "inputs": [
        {
          "indexed": true,
          "internalType": "address",
          "name": "delegate",
          "type": "address"
        },
        {
          "indexed": false,
          "internalType": "uint256",
          "name": "previousBalance",
          "type": "uint256"
        },
        {
          "indexed": false,
          "internalType": "uint256",
          "name": "newBalance",
          "type": "uint256"
        }
      ],
      "name": "DelegateVotesChanged",
      "type": "event"
    },
    {
      "anonymous": false,
      "inputs": [
        {
          "indexed": true,
          "internalType": "address",
          "name": "previousOwner",
          "type": "address"
        },
        {
          "indexed": true,
          "internalType": "address",
          "name": "newOwner",
          "type": "address"
        }
      ],
      "name": "OwnershipTransferred",
      "type": "event"
    },
    {
      "anonymous": false,
      "inputs": [
        {
          "indexed": true,
          "internalType": "address",
          "name": "from",
          "type": "address"
        },
        {
          "indexed": true,
          "internalType": "address",
          "name": "to",
          "type": "address"
        },
        {
          "indexed": false,
          "internalType": "uint256",
          "name": "value",
          "type": "uint256"
        }
      ],
      "name": "Transfer",
      "type": "event"
    },
    {
      "inputs": [],
      "name": "DELEGATION_TYPEHASH",
      "outputs": [
        {
          "internalType": "bytes32",
          "name": "",
          "type": "bytes32"
        }
      ],
      "stateMutability": "view",
      "type": "function"
    },
    {
      "inputs": [],
      "name": "DOMAIN_TYPEHASH",
      "outputs": [
        {
          "internalType": "bytes32",
          "name": "",
          "type": "bytes32"
        }
      ],
      "stateMutability": "view",
      "type": "function"
    },
    {
      "inputs": [
        {
          "internalType": "address",
          "name": "owner",
          "type": "address"
        },
        {
          "internalType": "address",
          "name": "spender",
          "type": "address"
        }
      ],
      "name": "allowance",
      "outputs": [
        {
          "internalType": "uint256",
          "name": "",
          "type": "uint256"
        }
      ],
      "stateMutability": "view",
      "type": "function"
    },
    {
      "inputs": [
        {
          "internalType": "address",
          "name": "spender",
          "type": "address"
        },
        {
          "internalType": "uint256",
          "name": "amount",
          "type": "uint256"
        }
      ],
      "name": "approve",
      "outputs": [
        {
          "internalType": "bool",
          "name": "",
          "type": "bool"
        }
      ],
      "stateMutability": "nonpayable",
      "type": "function"
    },
    {
      "inputs": [
        {
          "internalType": "address",
          "name": "account",
          "type": "address"
        }
      ],
      "name": "balanceOf",
      "outputs": [
        {
          "internalType": "uint256",
          "name": "",
          "type": "uint256"
        }
      ],
      "stateMutability": "view",
      "type": "function"
    },
    {
      "inputs": [
        {
          "internalType": "address",
          "name": "_from",
          "type": "address"
        },
        {
          "internalType": "uint256",
          "name": "_amount",
          "type": "uint256"
        }
      ],
      "name": "burn",
      "outputs": [],
      "stateMutability": "nonpayable",
      "type": "function"
    },
    {
      "inputs": [
        {
          "internalType": "address",
          "name": "",
          "type": "address"
        },
        {
          "internalType": "uint32",
          "name": "",
          "type": "uint32"
        }
      ],
      "name": "checkpoints",
      "outputs": [
        {
          "internalType": "uint32",
          "name": "fromBlock",
          "type": "uint32"
        },
        {
          "internalType": "uint256",
          "name": "votes",
          "type": "uint256"
        }
      ],
      "stateMutability": "view",
      "type": "function"
    },
    {
      "inputs": [],
      "name": "decimals",
      "outputs": [
        {
          "internalType": "uint8",
          "name": "",
          "type": "uint8"
        }
      ],
      "stateMutability": "view",
      "type": "function"
    },
    {
      "inputs": [
        {
          "internalType": "address",
          "name": "spender",
          "type": "address"
        },
        {
          "internalType": "uint256",
          "name": "subtractedValue",
          "type": "uint256"
        }
      ],
      "name": "decreaseAllowance",
      "outputs": [
        {
          "internalType": "bool",
          "name": "",
          "type": "bool"
        }
      ],
      "stateMutability": "nonpayable",
      "type": "function"
    },
    {
      "inputs": [
        {
          "internalType": "address",
          "name": "delegatee",
          "type": "address"
        }
      ],
      "name": "delegate",
      "outputs": [],
      "stateMutability": "nonpayable",
      "type": "function"
    },
    {
      "inputs": [
        {
          "internalType": "address",
          "name": "delegatee",
          "type": "address"
        },
        {
          "internalType": "uint256",
          "name": "nonce",
          "type": "uint256"
        },
        {
          "internalType": "uint256",
          "name": "expiry",
          "type": "uint256"
        },
        {
          "internalType": "uint8",
          "name": "v",
          "type": "uint8"
        },
        {
          "internalType": "bytes32",
          "name": "r",
          "type": "bytes32"
        },
        {
          "internalType": "bytes32",
          "name": "s",
          "type": "bytes32"
        }
      ],
      "name": "delegateBySig",
      "outputs": [],
      "stateMutability": "nonpayable",
      "type": "function"
    },
    {
      "inputs": [
        {
          "internalType": "address",
          "name": "delegator",
          "type": "address"
        }
      ],
      "name": "delegates",
      "outputs": [
        {
          "internalType": "address",
          "name": "",
          "type": "address"
        }
      ],
      "stateMutability": "view",
      "type": "function"
    },
    {
      "inputs": [
        {
          "internalType": "address",
          "name": "account",
          "type": "address"
        }
      ],
      "name": "getCurrentVotes",
      "outputs": [
        {
          "internalType": "uint256",
          "name": "",
          "type": "uint256"
        }
      ],
      "stateMutability": "view",
      "type": "function"
    },
    {
      "inputs": [],
      "name": "getOwner",
      "outputs": [
        {
          "internalType": "address",
          "name": "",
          "type": "address"
        }
      ],
      "stateMutability": "view",
      "type": "function"
    },
    {
      "inputs": [
        {
          "internalType": "address",
          "name": "account",
          "type": "address"
        },
        {
          "internalType": "uint256",
          "name": "blockNumber",
          "type": "uint256"
        }
      ],
      "name": "getPriorVotes",
      "outputs": [
        {
          "internalType": "uint256",
          "name": "",
          "type": "uint256"
        }
      ],
      "stateMutability": "view",
      "type": "function"
    },
    {
      "inputs": [
        {
          "internalType": "address",
          "name": "spender",
          "type": "address"
        },
        {
          "internalType": "uint256",
          "name": "addedValue",
          "type": "uint256"
        }
      ],
      "name": "increaseAllowance",
      "outputs": [
        {
          "internalType": "bool",
          "name": "",
          "type": "bool"
        }
      ],
      "stateMutability": "nonpayable",
      "type": "function"
    },
    {
      "inputs": [
        {
          "internalType": "address",
          "name": "_to",
          "type": "address"
        },
        {
          "internalType": "uint256",
          "name": "_amount",
          "type": "uint256"
        }
      ],
      "name": "mint",
      "outputs": [],
      "stateMutability": "nonpayable",
      "type": "function"
    },
    {
      "inputs": [
        {
          "internalType": "uint256",
          "name": "amount",
          "type": "uint256"
        }
      ],
      "name": "mint",
      "outputs": [
        {
          "internalType": "bool",
          "name": "",
          "type": "bool"
        }
      ],
      "stateMutability": "nonpayable",
      "type": "function"
    },
    {
      "inputs": [],
      "name": "name",
      "outputs": [
        {
          "internalType": "string",
          "name": "",
          "type": "string"
        }
      ],
      "stateMutability": "view",
      "type": "function"
    },
    {
      "inputs": [
        {
          "internalType": "address",
          "name": "",
          "type": "address"
        }
      ],
      "name": "nonces",
      "outputs": [
        {
          "internalType": "uint256",
          "name": "",
          "type": "uint256"
        }
      ],
      "stateMutability": "view",
      "type": "function"
    },
    {
      "inputs": [
        {
          "internalType": "address",
          "name": "",
          "type": "address"
        }
      ],
      "name": "numCheckpoints",
      "outputs": [
        {
          "internalType": "uint32",
          "name": "",
          "type": "uint32"
        }
      ],
      "stateMutability": "view",
      "type": "function"
    },
    {
      "inputs": [],
      "name": "owner",
      "outputs": [
        {
          "internalType": "address",
          "name": "",
          "type": "address"
        }
      ],
      "stateMutability": "view",
      "type": "function"
    },
    {
      "inputs": [],
      "name": "renounceOwnership",
      "outputs": [],
      "stateMutability": "nonpayable",
      "type": "function"
    },
    {
      "inputs": [],
      "name": "symbol",
      "outputs": [
        {
          "internalType": "string",
          "name": "",
          "type": "string"
        }
      ],
      "stateMutability": "view",
      "type": "function"
    },
    {
      "inputs": [],
      "name": "totalSupply",
      "outputs": [
        {
          "internalType": "uint256",
          "name": "",
          "type": "uint256"
        }
      ],
      "stateMutability": "view",
      "type": "function"
    },
    {
      "inputs": [
        {
          "internalType": "address",
          "name": "recipient",
          "type": "address"
        },
        {
          "internalType": "uint256",
          "name": "amount",
          "type": "uint256"
        }
      ],
      "name": "transfer",
      "outputs": [
        {
          "internalType": "bool",
          "name": "",
          "type": "bool"
        }
      ],
      "stateMutability": "nonpayable",
      "type": "function"
    },
    {
      "inputs": [
        {
          "internalType": "address",
          "name": "sender",
          "type": "address"
        },
        {
          "internalType": "address",
          "name": "recipient",
          "type": "address"
        },
        {
          "internalType": "uint256",
          "name": "amount",
          "type": "uint256"
        }
      ],
      "name": "transferFrom",
      "outputs": [
        {
          "internalType": "bool",
          "name": "",
          "type": "bool"
        }
      ],
      "stateMutability": "nonpayable",
      "type": "function"
    },
    {
      "inputs": [
        {
          "internalType": "address",
          "name": "newOwner",
          "type": "address"
        }
      ],
      "name": "transferOwnership",
      "outputs": [],
      "stateMutability": "nonpayable",
      "type": "function"
    }
  ],
  "bytecode": {
    "object": "0x60806040523480156200001157600080fd5b506040518060400160405280600c81526020016b26b7b1b5a3b7bb2a37b5b2b760a11b8152506040518060400160405280600781526020016626a3aa37b5b2b760c91b815250600062000069620000f460201b60201c565b600080546001600160a01b0319166001600160a01b0383169081178255604051929350917f8be0079c531659141344cd1fd0a4f28419497f9722a3daafe3b4186f6b6457e0908290a3508151620000c8906004906020850190620000f8565b508051620000de906005906020840190620000f8565b50506006805460ff191660121790555062000194565b3390565b828054600181600116156101000203166002900490600052602060002090601f016020900481019282601f106200013b57805160ff19168380011785556200016b565b828001600101855582156200016b579182015b828111156200016b5782518255916020019190600101906200014e565b50620001799291506200017d565b5090565b5b808211156200017957600081556001016200017e565b611d9480620001a46000396000f3fe608060405234801561001057600080fd5b50600436106101c45760003560e01c80637ecebe00116100f9578063a9059cbb11610097578063dd62ed3e11610071578063dd62ed3e146105a3578063e7a324dc146105d1578063f1127ed8146105d9578063f2fde38b1461062b576101c4565b8063a9059cbb1461050a578063b4b5ea5714610536578063c3cda5201461055c576101c4565b806395d89b41116100d357806395d89b411461048d5780639dc29fac14610495578063a0712d68146104c1578063a457c2d7146104de576101c4565b80637ecebe0014610457578063893d20e81461047d5780638da5cb5b14610485576101c4565b806340c10f19116101665780636fcfff45116101405780636fcfff45146103be57806370a08231146103fd578063715018a614610423578063782d6fe11461042b576101c4565b806340c10f1914610328578063587cde1e146103565780635c19a95c14610398576101c4565b806320606b70116101a257806320606b70146102a057806323b872dd146102a8578063313ce567146102de57806339509351146102fc576101c4565b806306fdde03146101c9578063095ea7b31461024657806318160ddd14610286575b600080fd5b6101d1610651565b6040805160208082528351818301528351919283929083019185019080838360005b8381101561020b5781810151838201526020016101f3565b50505050905090810190601f1680156102385780820380516001836020036101000a031916815260200191505b509250505060405180910390f35b6102726004803603604081101561025c57600080fd5b506001600160a01b0381351690602001356106e7565b604080519115158252519081900360200190f35b61028e610705565b60408051918252519081900360200190f35b61028e61070b565b610272600480360360608110156102be57600080fd5b506001600160a01b0381358116916020810135909116906040013561072f565b6102e66107b6565b6040805160ff9092168252519081900360200190f35b6102726004803603604081101561031257600080fd5b506001600160a01b0381351690602001356107bf565b6103546004803603604081101561033e57600080fd5b506001600160a01b03813516906020013561080d565b005b61037c6004803603602081101561036c57600080fd5b50356001600160a01b0316610898565b604080516001600160a01b039092168252519081900360200190f35b610354600480360360208110156103ae57600080fd5b50356001600160a01b03166108b6565b6103e4600480360360208110156103d457600080fd5b50356001600160a01b03166108c3565b6040805163ffffffff9092168252519081900360200190f35b61028e6004803603602081101561041357600080fd5b50356001600160a01b03166108db565b6103546108f6565b61028e6004803603604081101561044157600080fd5b506001600160a01b038135169060200135610998565b61028e6004803603602081101561046d57600080fd5b50356001600160a01b0316610ba0565b61037c610bb2565b61037c610bc1565b6101d1610bd0565b610354600480360360408110156104ab57600080fd5b506001600160a01b038135169060200135610c31565b610272600480360360208110156104d757600080fd5b5035610cb9565b610272600480360360408110156104f457600080fd5b506001600160a01b038135169060200135610d2c565b6102726004803603604081101561052057600080fd5b506001600160a01b038135169060200135610d94565b61028e6004803603602081101561054c57600080fd5b50356001600160a01b0316610da8565b610354600480360360c081101561057257600080fd5b506001600160a01b038135169060208101359060408101359060ff6060820135169060808101359060a00135610e0c565b61028e600480360360408110156105b957600080fd5b506001600160a01b038135811691602001351661107f565b61028e6110aa565b61060b600480360360408110156105ef57600080fd5b5080356001600160a01b0316906020013563ffffffff166110ce565b6040805163ffffffff909316835260208301919091528051918290030190f35b6103546004803603602081101561064157600080fd5b50356001600160a01b03166110fb565b60048054604080516020601f60026000196101006001881615020190951694909404938401819004810282018101909252828152606093909290918301828280156106dd5780601f106106b2576101008083540402835291602001916106dd565b820191906000526020600020905b8154815290600101906020018083116106c057829003601f168201915b5050505050905090565b60006106fb6106f461115c565b8484611160565b5060015b92915050565b60035490565b7f8cad95687ba82c2ce50e74f7b754645e5117c3a5bec8151c0726d5857980a86681565b600061073c84848461124c565b6107ac8461074861115c565b6107a785604051806060016040528060288152602001611bbb602891396001600160a01b038a1660009081526002602052604081209061078661115c565b6001600160a01b03168152602081019190915260400160002054919061139e565b611160565b5060019392505050565b60065460ff1690565b60006106fb6107cc61115c565b846107a785600260006107dd61115c565b6001600160a01b03908116825260208083019390935260409182016000908120918c168152925290205490611435565b61081561115c565b6000546001600160a01b03908116911614610865576040805162461bcd60e51b81526020600482018190526024820152600080516020611be3833981519152604482015290519081900360640190fd5b61086f828261148f565b6001600160a01b03808316600090815260076020526040812054610894921683611575565b5050565b6001600160a01b039081166000908152600760205260409020541690565b6108c033826116b7565b50565b60096020526000908152604090205463ffffffff1681565b6001600160a01b031660009081526001602052604090205490565b6108fe61115c565b6000546001600160a01b0390811691161461094e576040805162461bcd60e51b81526020600482018190526024820152600080516020611be3833981519152604482015290519081900360640190fd5b600080546040516001600160a01b03909116907f8be0079c531659141344cd1fd0a4f28419497f9722a3daafe3b4186f6b6457e0908390a3600080546001600160a01b0319169055565b60004382106109d85760405162461bcd60e51b815260040180806020018281038252602a815260200180611b91602a913960400191505060405180910390fd5b6001600160a01b03831660009081526009602052604090205463ffffffff1680610a065760009150506106ff565b6001600160a01b038416600090815260086020908152604080832063ffffffff600019860181168552925290912054168310610a75576001600160a01b03841660009081526008602090815260408083206000199490940163ffffffff168352929052206001015490506106ff565b6001600160a01b038416600090815260086020908152604080832083805290915290205463ffffffff16831015610ab05760009150506106ff565b600060001982015b8163ffffffff168163ffffffff161115610b6957600282820363ffffffff16048103610ae2611ae5565b506001600160a01b038716600090815260086020908152604080832063ffffffff808616855290835292819020815180830190925280549093168082526001909301549181019190915290871415610b44576020015194506106ff9350505050565b805163ffffffff16871115610b5b57819350610b62565b6001820392505b5050610ab8565b506001600160a01b038516600090815260086020908152604080832063ffffffff9094168352929052206001015491505092915050565b600a6020526000908152604090205481565b6000610bbc610bc1565b905090565b6000546001600160a01b031690565b60058054604080516020601f60026000196101006001881615020190951694909404938401819004810282018101909252828152606093909290918301828280156106dd5780601f106106b2576101008083540402835291602001916106dd565b610c3961115c565b6000546001600160a01b03908116911614610c89576040805162461bcd60e51b81526020600482018190526024820152600080516020611be3833981519152604482015290519081900360640190fd5b610c93828261174c565b6001600160a01b0380831660009081526007602052604081205461089492169083611575565b6000610cc361115c565b6000546001600160a01b03908116911614610d13576040805162461bcd60e51b81526020600482018190526024820152600080516020611be3833981519152604482015290519081900360640190fd5b610d24610d1e61115c565b8361148f565b506001919050565b60006106fb610d3961115c565b846107a785604051806060016040528060258152602001611c4c6025913960026000610d6361115c565b6001600160a01b03908116825260208083019390935260409182016000908120918d1681529252902054919061139e565b60006106fb610da161115c565b848461124c565b6001600160a01b03811660009081526009602052604081205463ffffffff1680610dd3576000610e05565b6001600160a01b038316600090815260086020908152604080832063ffffffff60001986011684529091529020600101545b9392505050565b60007f8cad95687ba82c2ce50e74f7b754645e5117c3a5bec8151c0726d5857980a866610e37610651565b80519060200120610e4661183c565b60408051602080820195909552808201939093526060830191909152306080808401919091528151808403909101815260a0830182528051908401207fe48329057bfd03d55e49b547132e39cffd9c1820ad7b9d4c5307691425d15adf60c08401526001600160a01b038b1660e084015261010083018a90526101208084018a9052825180850390910181526101408401835280519085012061190160f01b6101608501526101628401829052610182808501829052835180860390910181526101a285018085528151918701919091206000918290526101c2860180865281905260ff8b166101e287015261020286018a90526102228601899052935192965090949293909260019261024280840193601f198301929081900390910190855afa158015610f79573d6000803e3d6000fd5b5050604051601f1901519150506001600160a01b038116610fcb5760405162461bcd60e51b8152600401808060200182810382526029815260200180611d366029913960400191505060405180910390fd5b6001600160a01b0381166000908152600a6020526040902080546001810190915589146110295760405162461bcd60e51b8152600401808060200182810382526025815260200180611b6c6025913960400191505060405180910390fd5b874211156110685760405162461bcd60e51b8152600401808060200182810382526029815260200180611c926029913960400191505060405180910390fd5b611072818b6116b7565b505050505b505050505050565b6001600160a01b03918216600090815260026020908152604080832093909416825291909152205490565b7fe48329057bfd03d55e49b547132e39cffd9c1820ad7b9d4c5307691425d15adf81565b60086020908152600092835260408084209091529082529020805460019091015463ffffffff9091169082565b61110361115c565b6000546001600160a01b03908116911614611153576040805162461bcd60e51b81526020600482018190526024820152600080516020611be3833981519152604482015290519081900360640190fd5b6108c081611840565b3390565b6001600160a01b0383166111a55760405162461bcd60e51b8152600401808060200182810382526024815260200180611b226024913960400191505060405180910390fd5b6001600160a01b0382166111ea5760405162461bcd60e51b8152600401808060200182810382526022815260200180611d146022913960400191505060405180910390fd5b6001600160a01b03808416600081815260026020908152604080832094871680845294825291829020859055815185815291517f8c5be1e5ebec7d5bd14f71427d1e84f3dd0314c0f7b2291e5b200ac8c7c3b9259281900390910190a3505050565b6001600160a01b0383166112915760405162461bcd60e51b8152600401808060200182810382526025815260200180611afd6025913960400191505060405180910390fd5b6001600160a01b0382166112d65760405162461bcd60e51b8152600401808060200182810382526023815260200180611c296023913960400191505060405180910390fd5b61131381604051806060016040528060268152602001611c03602691396001600160a01b038616600090815260016020526040902054919061139e565b6001600160a01b0380851660009081526001602052604080822093909355908416815220546113429082611435565b6001600160a01b0380841660008181526001602090815260409182902094909455805185815290519193928716927fddf252ad1be2c89b69c2b068fc378daa952ba7f163c4a11628f55a4df523b3ef92918290030190a3505050565b6000818484111561142d5760405162461bcd60e51b81526004018080602001828103825283818151815260200191508051906020019080838360005b838110156113f25781810151838201526020016113da565b50505050905090810190601f16801561141f5780820380516001836020036101000a031916815260200191505b509250505060405180910390fd5b505050900390565b600082820183811015610e05576040805162461bcd60e51b815260206004820152601b60248201527f536166654d6174683a206164646974696f6e206f766572666c6f770000000000604482015290519081900360640190fd5b6001600160a01b0382166114ea576040805162461bcd60e51b815260206004820152601f60248201527f42455032303a206d696e7420746f20746865207a65726f206164647265737300604482015290519081900360640190fd5b6003546114f79082611435565b6003556001600160a01b03821660009081526001602052604090205461151d9082611435565b6001600160a01b03831660008181526001602090815260408083209490945583518581529351929391927fddf252ad1be2c89b69c2b068fc378daa952ba7f163c4a11628f55a4df523b3ef9281900390910190a35050565b816001600160a01b0316836001600160a01b0316141580156115975750600081115b156116b2576001600160a01b03831615611629576001600160a01b03831660009081526009602052604081205463ffffffff1690816115d7576000611609565b6001600160a01b038516600090815260086020908152604080832063ffffffff60001987011684529091529020600101545b9050600061161782856118e0565b905061162586848484611922565b5050505b6001600160a01b038216156116b2576001600160a01b03821660009081526009602052604081205463ffffffff169081611664576000611696565b6001600160a01b038416600090815260086020908152604080832063ffffffff60001987011684529091529020600101545b905060006116a48285611435565b905061107785848484611922565b505050565b6001600160a01b03808316600090815260076020526040812054909116906116de846108db565b6001600160a01b0385811660008181526007602052604080822080546001600160a01b031916898616908117909155905194955093928616927f3134e8a2e6d97e929a7e54011ea5485d7d196dd5f0ba4d4ef95803e8e3fc257f9190a4611746828483611575565b50505050565b6001600160a01b0382166117915760405162461bcd60e51b8152600401808060200182810382526021815260200180611c716021913960400191505060405180910390fd5b6117ce81604051806060016040528060228152602001611cf2602291396001600160a01b038516600090815260016020526040902054919061139e565b6001600160a01b0383166000908152600160205260409020556003546117f490826118e0565b6003556040805182815290516000916001600160a01b038516917fddf252ad1be2c89b69c2b068fc378daa952ba7f163c4a11628f55a4df523b3ef9181900360200190a35050565b4690565b6001600160a01b0381166118855760405162461bcd60e51b8152600401808060200182810382526026815260200180611b466026913960400191505060405180910390fd5b600080546040516001600160a01b03808516939216917f8be0079c531659141344cd1fd0a4f28419497f9722a3daafe3b4186f6b6457e091a3600080546001600160a01b0319166001600160a01b0392909216919091179055565b6000610e0583836040518060400160405280601e81526020017f536166654d6174683a207375627472616374696f6e206f766572666c6f77000081525061139e565b600061194643604051806060016040528060378152602001611cbb60379139611a87565b905060008463ffffffff1611801561198f57506001600160a01b038516600090815260086020908152604080832063ffffffff6000198901811685529252909120548282169116145b156119cc576001600160a01b038516600090815260086020908152604080832063ffffffff60001989011684529091529020600101829055611a3d565b60408051808201825263ffffffff808416825260208083018681526001600160a01b038a166000818152600884528681208b8616825284528681209551865490861663ffffffff19918216178755925160019687015590815260099092529390208054928801909116919092161790555b604080518481526020810184905281516001600160a01b038816927fdec2bacdd2f05b59de34da9b523dff8be42e5e38e818c82fdb0bae774387a724928290030190a25050505050565b6000816401000000008410611add5760405162461bcd60e51b81526020600482018181528351602484015283519092839260449091019190850190808383600083156113f25781810151838201526020016113da565b509192915050565b60408051808201909152600080825260208201529056fe42455032303a207472616e736665722066726f6d20746865207a65726f206164647265737342455032303a20617070726f76652066726f6d20746865207a65726f20616464726573734f776e61626c653a206e6577206f776e657220697320746865207a65726f20616464726573734d47546f6b656e3a3a64656c656761746542795369673a20696e76616c6964206e6f6e63654d47546f6b656e3a3a6765745072696f72566f7465733a206e6f74207965742064657465726d696e656442455032303a207472616e7366657220616d6f756e74206578636565647320616c6c6f77616e63654f776e61626c653a2063616c6c6572206973206e6f7420746865206f776e657242455032303a207472616e7366657220616d6f756e7420657863656564732062616c616e636542455032303a207472616e7366657220746f20746865207a65726f206164647265737342455032303a2064656372656173656420616c6c6f77616e63652062656c6f77207a65726f42455032303a206275726e2066726f6d20746865207a65726f20616464726573734d47546f6b656e3a3a64656c656761746542795369673a207369676e617475726520657870697265644d47546f6b656e3a3a5f7772697465436865636b706f696e743a20626c6f636b206e756d6265722065786365656473203332206269747342455032303a206275726e20616d6f756e7420657863656564732062616c616e636542455032303a20617070726f766520746f20746865207a65726f20616464726573734d47546f6b656e3a3a64656c656761746542795369673a20696e76616c6964207369676e6174757265a2646970667358221220a68488776c7931d0f0eed9d4b1d5077731782f6158e0493f07ce5c29468a9aeb64736f6c634300060c0033",
    "linkReferences": {}
  },
  "methodIdentifiers": {
    "DELEGATION_TYPEHASH()": "e7a324dc",
    "DOMAIN_TYPEHASH()": "20606b70",
    "allowance(address,address)": "dd62ed3e",
    "approve(address,uint256)": "095ea7b3",
    "balanceOf(address)": "70a08231",
    "burn(address,uint256)": "9dc29fac",
    "checkpoints(address,uint32)": "f1127ed8",
    "decimals()": "313ce567",
    "decreaseAllowance(address,uint256)": "a457c2d7",
    "delegate(address)": "5c19a95c",
    "delegateBySig(address,uint256,uint256,uint8,bytes32,bytes32)": "c3cda520",
    "delegates(address)": "587cde1e",
    "getCurrentVotes(address)": "b4b5ea57",
    "getOwner()": "893d20e8",
    "getPriorVotes(address,uint256)": "782d6fe1",
    "increaseAllowance(address,uint256)": "39509351",
    "mint(address,uint256)": "40c10f19",
    "mint(uint256)": "a0712d68",
    "name()": "06fdde03",
    "nonces(address)": "7ecebe00",
    "numCheckpoints(address)": "6fcfff45",
    "owner()": "8da5cb5b",
    "renounceOwnership()": "715018a6",
    "symbol()": "95d89b41",
    "totalSupply()": "18160ddd",
    "transfer(address,uint256)": "a9059cbb",
    "transferFrom(address,address,uint256)": "23b872dd",
    "transferOwnership(address)": "f2fde38b"
  }
}